:100000000C94D6160C94FE160C94FE160C94FE1648
:100010000C94FE160C94FE160C94FE160C94FE1610
:100020000C94FE160C94FE160C94A51B0C94AB1CA1
:100030000C94FE160C94FE160C94FE160C94FE16F0
:100040000C94FE160C94FE160C94FE160C94FE16E0
:100050000C94FE160C94FE160C94FE160C94FB18D1
:100060000C94FE160C94FE160C94FE160C94FE16C0
:100070000C94FE160C94FE160C94FE160C94FE16B0
:100080000C94FE160C94FE160C94FE160C94FE16A0
:100090000C94FE160C94FE160C94FE160C94FE1690
:1000A0000C94FE160C94FE160C94FE1641206D6105
:1000B000676963616C2E2E2E206D61676963207401
:1000C00068696E672E00546865206C65747465728B
:1000D00073204F20616E6420522E004974277320D4
:1000E00031303030207365637265747320746865D5
:1000F00020676F7665726E6D656E7420646F6573D0
:100100006E27742077616E7420796F7520746F206C
:100110006B6E6F7721002E2E2E7468696E67793FA3
:100120003F3F004564204D634D61686F6E207374DE
:10013000616E647320686572652C206C6F73742027
:10014000696E2074686F756768742E2053656569E1
:100150006E6720796F752C2068652062656C6C6F06
:1001600077732C20225945532053495221220049AC
:1001700074277320746865206173746F756E646989
:100180006E67206D6574612D6F626A6563742E0001
:10019000456D707479206A6577656C626F786573F8
:1001A000206C697474657220746865206C616E647B
:1001B00073636170652E00596F7527766520666FD1
:1001C000756E6420746865206661626C65642041A8
:1001D0006D6572696361204F6E6C696E652064693C
:1001E000736B20677261766579617264210049746E
:1001F000277320612074617065206F662027373077
:100200007320726F636B2E20416C6C206F72696774
:10021000696E616C20686974732120416C6C206F79
:10022000726967696E616C2061727469737473219D
:1002300000224C656E6420757320612066697665C6
:1002400072202774696C2054687572736461792216
:100250002C20706C65617320416E6479204361705D
:10026000702E00497427732074686520426173738F
:100270002D4D617469632027373621204D6D6D2C1B
:100280002074686174277320676F6F6420626173E4
:1002900073210050756D706B696E207069652073F5
:1002A000706963652E0049742773202246696E6465
:1002B000696E67206B697474656E222C207075629C
:1002C0006C6973686564206279204F275265696C98
:1002D0006C7920616E64204173736F63696174652A
:1002E000732E0054686520626F6F6D20626F7820F6
:1002F0006372616E6B73206F757420616E206F6C1A
:100300006420457468656C204D65726D616E207463
:10031000756E652E004772696E642027656D2075C5
:10032000702C20737069742027656D206F75742C94
:1003300020746865792772652074776967732E0069
:100340004D6F726520677269737420666F722074D6
:100350006865206D696C6C2E0022426C75702C20D3
:10036000626C75702C20626C7570222C2073617920
:100370007320746865206D756420706F742E00485A
:1003800065726527732050657465205065746572C9
:10039000736F6E2E20486973206261747465726990
:1003A0006573207365656D20746F206861766520C4
:1003B0006C6F6E6720676F6E6520646561642E00E8
:1003C00049742773204B4954542C20746865207459
:1003D000616C6B696E67206361722E004120726FE1
:1003E000626F7420636F6D656469616E2E20596F52
:1003F00075206665656C20616D757365642E0041BE
:100400002077696C6C696E672C2072697065207446
:100410006F6D61746F2062656D6F616E7320796FAF
:10042000757220696E6162696C69747920746F20DD
:100430006469676573742066727569742E00497407
:100440002773202257617220616E642050656163BA
:1004500065222028756E61627269646765642C206C
:100460007665727920736D616C6C207072696E7440
:10047000292E0049742773206120636F7079206FE3
:100480006620225468652052756261697961742022
:100490006F66205370696B652053636875647922B9
:1004A0002E00497427732061207A656E2073696D70
:1004B000756C6174696F6E2C207472617070656404
:1004C0002077697468696E20616E20415343494901
:1004D000206368617261637465722E0041205377F6
:1004E0006973732D41726D79206B6E6966652E207C
:1004F000416C6C206F662069747320617070656E4A
:10050000646167657320617265206F75742E2028A1
:10051000746F6F74687069636B206C6F73742900FB
:1005200041206C6974746C6520676C61737320740E
:100530007562206F66204361726D65782E202824D5
:100540002E38392920546F6F2062616420796F75CD
:100550002068617665206E6F206C6970732E004A8A
:100560007573742061206D6F6C6479206C6F6166A7
:10057000206F662062726561642E004974277320C3
:100580006120706F727461626C6520686F6C652E9B
:100590002041207369676E2072656164733A20227E
:1005A000436C6F73656420666F7220746865207792
:1005B000696E746572222E004974277320616E2063
:1005C0006175746F6D6174656420726F626F742DF4
:1005D0006469736461696E65722E2049742070725B
:1005E0006574656E647320796F75277265206E6F10
:1005F000742074686572652E004120666F72676FA3
:100600007474656E2074656C6570686F6E652073B8
:100610007769746368626F617264206F706572617C
:10062000746F722E004120666F72676F7474656E0E
:100630002074656C6570686F6E652073776974638C
:1006400068626F6172642E004120706172726F7413
:100650002C206B697070696E67206F6E20697473EF
:10066000206261636B2E004E65276572206275748F
:10067000206120706F7474656420706C616E742EDC
:1006800000526F6765722041766572792C20706523
:1006900072736F6E6120756E2066616D6F736F206F
:1006A0006465206C6F732045737461646F732055AB
:1006B0006E69646F732E005468697320736D696C82
:1006C000696E672066616D696C7920697320686165
:1006D00070707920626563617573652074686579EF
:1006E00020656174204C4152442E004974277320C8
:1006F00061206275727269746F207374616E642018
:10070000666C7965722E202254617175657269611B
:1007100020456C2052616E636869746F222E004917
:1007200074277320746865206D697373696E672020
:100730006368617074657220746F20224120436C7D
:100740006F636B776F726B204F72616E6765222EDD
:100750000054687265652068616C662D70656E6E08
:1007600069657320616E64206120776F6F64656EC8
:10077000206E69636B656C2E005468697320737515
:1007800062776F6F6665722077617320626C6F7736
:100790006E206F757420696E20313937342E002237
:1007A00048692C2049276D20416E736F6E20576970
:1007B0006C6C69616D732C20545627732027506F21
:1007C000747379272E22005468697320636F7272E4
:1007D0006F64656420726F626F7420697320636C4C
:1007E00075746368696E672061206D697474656EE5
:1007F0002E0049742773206120736F6C69746172D5
:10080000792076616375756D20747562652E00546C
:10081000686973207065672D6C6567206973207344
:100820007475636B20696E2061206B6E6F74686FE6
:100830006C6521004120746F696C657420626F776C
:100840006C206F63637570696573207468697320C9
:1008500073706163652E0054686973205452532D80
:1008600038302049494920697320656572696C797F
:100870002073696C656E742E004120736563746922
:100880006F6E206F6620676C6F77696E6720706887
:100890006F7370686F722063656C6C732073696E20
:1008A0006773206120736F6E67206F6620726164CA
:1008B000696174696F6E20746F20796F752E0049BD
:1008C000742773206E6F7468696E67206275742078
:1008D0006120636F7272757074656420666C6F70EE
:1008E00070792E20436F617374657220616E796F29
:1008F0006E653F004120737461636B206F66203723
:1009000020696E636820666C6F707069657320770C
:100910006F62626C657320707265636172696F7576
:10092000736C792E004974277320612022484F4D43
:100930004520414C4F4E4520323A204C6F73742075
:10094000696E204E657720596F726B22206E6F762C
:10095000656C7479206375702E00412070697A7A15
:10096000612C206D656C74696E6720696E207468F7
:10097000652073756E2E00497427732061206368AB
:100980006172636F616C2062726971756574746500
:100990002C20736D6F6B696E6720617761792E0013
:1009A000546861722773204D6F62697573204469C2
:1009B000636B2C2074686520636F6E766F6C757442
:1009C0006564207768616C652E2041727272210027
:1009D0004120686973746F726963616C206D617224
:1009E0006B65722073686F77696E67207468652025
:1009F00061637475616C206C6F636174696F6E20E4
:100A00006F66202F6465762F6E756C6C2E004974AE
:100A100027732061207365676D656E746174696FFB
:100A20006E206661756C742E20436F72652064754C
:100A30006D7065642C206279207468652077617917
:100A40002E00416E6F746865722072616262697413
:100A50003F20546861742773207468726565207440
:100A60006F6461792100416E206175746F677261F6
:100A70007068656420636F7079206F662022507201
:100A8000696D61727920436F6C6F7273222C2062E2
:100A90007920416E6F6E796D6F75732E0054776F8C
:100AA000206372657065732C2074776F20637265A4
:100AB00070657320696E206120626F782E004A7520
:100AC00073742057616C746572204D61747468652D
:100AD000617520616E64204A61636B204C656D6DA9
:100AE0006F6E2E004C6F6F6B2061742074686174A0
:100AF0002C20697427732074686520437275646DB7
:100B00006F62696C652E00506C656E7479206F663B
:100B1000206E6F7468696E672E0041207075646482
:100B20006C65206F66206D75642C20776865726532
:100B300020746865206D7564736B6970706572737D
:100B400020706C61792E004F6820626F79212047F8
:100B5000727562212045722C2067727562732E00B7
:100B600049742773206120726F6C6C206F66206956
:100B70006E647573747269616C2D737472656E67DF
:100B8000746820636F7070657220776972652E00DB
:100B90005468697320697320612072656D6F746594
:100BA00020636F6E74726F6C2E204265696E6720D1
:100BB0006120726F626F742C20796F75206B656590
:100BC00070206120776964652062657274682E0008
:100BD000497427732061205175616B6572204F61E4
:100BE000746D65616C20747562652C20636F6E7620
:100BF000657274656420696E746F2061206472751B
:100C00006D2E0054686973206A756B65626F782079
:100C1000686173206E6F7468696E672062757420F6
:100C2000436C69666620526963686172647320610F
:100C30006C62756D7320696E2069742E0054656155
:100C400020616E642F6F72206372756D70657473AE
:100C50002E004120627261696E2063656C6C2E20EB
:100C60004F64646C7920656E6F7567682C206974B9
:100C7000207365656D7320746F2062652066756EE4
:100C80006374696F6E696E672E00497427732074F0
:100C9000686520696E737472756374696F6E206D18
:100CA000616E75616C20666F72206120707265766E
:100CB000696F75732076657273696F6E206F662039
:100CC000746869732067616D652E005768617420D0
:100CD000696E20626C617A6573206973207468693B
:100CE000733F004C6F6F6B2C206974277320466133
:100CF0006E6E79207468652049726973686D616EE3
:100D00002100546865206469727479206F6C6420D6
:100D10007472616D702062656D6F616E73207468AE
:100D200065206C6F7373206F66206869732068613B
:100D3000726D6F6E6963612E005468697320697308
:100D40002061204C616772616E676520706F696E0B
:100D5000742E20446F6E277420636F6D6520746F4E
:100D60006F20636C6F7365206E6F772E002254685E
:100D7000657265206973206E6F206B697474656E8F
:100D80002122206361636B6C657320746865206F3A
:100D90006C642063726F6E652E20596F75206172CE
:100DA000652073686F636B65642062792068657283
:100DB00020626C61737068656D792E0041207472D9
:100DC0006166666963207369676E616C2E20497481
:100DD000206170706561727320746F206861766540
:100DE000206265656E20726563656E746C7920762D
:100DF000616E64616C697A65642E00546865206F69
:100E0000626A6563742070757368657320626163DC
:100E10006B20617420796F752E00497427732061EF
:100E20002073796D626F6C2E20596F752073656524
:100E300020696E2069742061206D6F64656C206686
:100E40006F7220616C6C2073796D626F6C732065BA
:100E50007665727977686572652E005468697320CB
:100E60006F626A656374206973206C696B652061C9
:100E70006E20616E616C6F67792E00546869732013
:100E8000697320616E20616E616772616D2E004929
:100E90007427732063726565707920616E642069C0
:100EA000742773206B6F6F6B792C206D7973746569
:100EB00072696F757320616E642073706F6F6B79E8
:100EC0002E204974277320616C736F20736F6D65DA
:100ED00077686174206F6F6B792E004974277320D7
:100EE000612072696D2073686F742E2042612D64D9
:100EF000612D626F6F6D2100412073616C6D6F6EAB
:100F00002068617463686572793F204C6F6F6B2055
:100F1000616761696E2E2049742773206D65726563
:100F20006C7920612073696E676C652073616C6DEC
:100F30006F6E2E00546869732062616C6F676E611A
:100F4000206861732061206669727374206E616D20
:100F5000652C206974277320522D412D4E2D432D71
:100F6000492D442E005468697320697320612074F0
:100F7000656C65766973696F6E2E204F6E207363A2
:100F80007265656E20796F752073656520612072CA
:100F90006F626F7420737472616E67656C79207311
:100FA000696D696C617220746F20796F75727365F9
:100FB0006C662E0049742773206120686F6C6F6720
:100FC00072616D206F662061206372617368656471
:100FD0002068656C69636F707465722E005468696F
:100FE0007320746F617374657220737472756465B5
:100FF0006C20697320726964646C6564207769741D
:10100000682062756C6C657420686F6C6573210074
:101010004120747261736820636F6D706163746FD7
:10102000722C20636F6D70616374696E67206177E5
:1010300061792E0054686973206973207468652093
:10104000776F726C642D66616D6F75732043686194
:10105000696E206F66204A6F636B73747261707380
:101060002E0054686973206F626A65637420686536
:101070007265206170706561727320746F206265A3
:10108000204C6F7569732046617272616B68616E86
:10109000277320626F77207469652E004120746584
:1010A000616D206F6620617263746963206578707A
:1010B0006C6F726572732069732063616D70656413
:1010C00020686572652E0054686973206973206119
:1010D000206C617267652062726F776E2062656155
:1010E000722E204F64646C7920656E6F7567682C72
:1010F00020697427732063757272656E746C792031
:10110000706565696E6720696E2074686520776F09
:101110006F64732E0022546F70736F696C27732095
:10112000616C6C20676F6E652C206D612C222077BE
:1011300065657073204C696C2720477265672E00C7
:1011400022486F7720696E206865636B2063616E4B
:1011500020492077617368206D79206E65636B206C
:1011600069662069742061696E277420676F6E6EEE
:1011700061207261696E206E6F206D6F72653F2213
:101180002061736B73204661726D657220416C2E15
:1011900000225375726520686F706520776520673F
:1011A000657420736F6D65207261696E20736F6F57
:1011B0006E2C222073617973204661726D657220F6
:1011C0004A6F652E004120666C616D626F79616EB9
:1011D00074206665617468657220626F612E204EAE
:1011E0006F7720796F752063616E20647265737309
:1011F000207570206C696B65204361726F6C2043B1
:1012000068616E6E696E6721004974277320746887
:101210006520616D617A696E672073656C662D72F9
:1012200065666572656E7469616C207468696E6765
:1012300020746861742773206E6F74206B697474F6
:10124000656E2E004865792C206C6F6F6B2C2069C1
:10125000742773207761722E205768617420697338
:1012600020697420676F6F6420666F723F2041624F
:10127000736F6C7574656C79206E6F7468696E67D6
:101280002E2053617920697420616761696E2E0098
:10129000497427732054562773206C6F7661626CF3
:1012A000652077697365637261636B696E6720435C
:1012B000726F7721202242697465206D6521222C8E
:1012C00020686520736179732E004974277320614B
:1012D0006E206F7264696E6172792062757374201A
:1012E0006F662042656574686F76656E2E2E2E20BF
:1012F0006275742077687920697320697420706141
:10130000696E74656420677265656E3F0041207088
:10131000616972206F662073616C6F6F6E2D7374DC
:10132000796C6520646F6F7273207377696E6720C4
:10133000736C6F776C79206261636B20616E6420DF
:10134000666F72746820686572652E0041206C615A
:1013500072676520736E616B6520626172732079BC
:101360006F7572207761792E004120766173652058
:1013700066756C6C206F662061727469666963695A
:10138000616C20666C6F776572732069732073746B
:1013900075636B20746F2074686520666C6F6F7264
:1013A00020686572652E0049742773207468652073
:1013B000686F72697A6F6E2E204E6F7720544841A5
:1013C0005427532077656972642E0049742773206F
:1013D00061206C696D626F206261722120486F77B5
:1013E000206C6F772063616E20796F7520676F3F87
:1013F00000412068657264206F662077696C642004
:10140000636F66666565206D75677320736C756DB7
:101410006265727320686572652E004C6F6F6B2079
:101420006F757421204578636C616D6174696F6EAE
:1014300020706F696E747321005468697320617045
:10144000706561727320746F206265206120726123
:1014500074686572206C6172676520737461636B78
:10146000206F662074726173687920726F6D616E8F
:101470006365206E6F76656C732E0041207472690F
:101480006265206F662063616E6E6962616C7320B5
:101490006C6976657320686572652E20546865797D
:1014A00020656174204D616C742D4F2D4D65616C0C
:1014B00020666F7220627265616B666173742C20A6
:1014C000796F75206B6E6F772E0054686520576FAB
:1014D000726C6427732042696767657374204D6F6F
:1014E000747A61682042616C6C2100546865726591
:1014F0002773206E6F7468696E6720686572653B3C
:101500002069742773206A75737420616E206F7070
:10151000746963616C20696C6C7573696F6E2E0001
:10152000224F6E20746869732073706F7420696E27
:1015300020313936322C2048656E72792057696E19
:101540006B6C657220776173207369636B2E220068
:101550004974277320612070657270657475616CC1
:1015600020696D6D6F62696C697479206D61636863
:10157000696E652E0041206C6976657279207374FE
:1015800061626C65212047657420796F7572206CEB
:101590006976657279210057616974212054686900
:1015A000732069736E27742074686520706F6B6593
:1015B0007220636869702120596F752776652062F3
:1015C00065656E20747269636B6564212044414DCA
:1015D0004E20594F552C204D454E44455A2100541C
:1015E00068697320776173206E6F20626F61746920
:1015F0006E67206163636964656E742100495427D6
:101600005320414C4956452120414820484120481B
:1016100041204841204841210049742773206E6FC2
:101620007468696E6720627574206120472D746844
:10163000616E672C20626162792E00412070756EA8
:10164000636820626F776C2C2066696C6C6564201F
:10165000776974682070756E636820616E64206CB1
:10166000656D6F6E20736C696365732E0041682C25
:101670002074686520756E69666F726D206F6620D4
:1016800061205265766F6C7574696F6E6172792D29
:10169000657261206D696E7574656D616E2E004FA7
:1016A0006E65206F662074686520666577207265B8
:1016B0006D61696E696E6720646973636F65732E0F
:1016C000004120427574746572746F6E73696C7337
:1016D000206261722E00596F7527766520666F75DE
:1016E0006E6420746865206669736821204E6F748B
:1016F000207468617420697420646F657320796F49
:1017000075206D75636820676F6F6420696E207443
:101710006869732067616D652E004120746F656E86
:1017200061696C3F205768617420676F6F6420693E
:1017300073206120746F656E61696C3F00412067A2
:101740006579736572207370726179732077617443
:101750006572206869676820696E746F20746865B7
:10176000206169722E0041207370696E646C652C73
:1017700020616E642061206772696E646C652C2044
:10178000616E642061206275636B612D7761636BAC
:10179000612D776F6F6D2100412070617463682047
:1017A0006F66206772617065206A656C6C7920676E
:1017B000726F777320686572652E004120706174C6
:1017C0006368206F66206D757368726F6F6D73202C
:1017D00067726F777320686572652E004361726C63
:1017E0006F7320546172616E676F207374616E64F1
:1017F0007320686572652C20646F696E6720686964
:1018000073206265737420696D7072657373696F9C
:101810006E206F662050617420536D6561722E00DA
:10182000412068656C69636F7074657220686173CC
:10183000206372617368656420686572652E004973
:1018400074277320612062616E616E6121204F6890
:101850002C206A6F79210054686973206B696E646B
:10186000206F66206C6F6F6B73206C696B65206BEB
:10187000697474656E2C20627574206974277320F6
:101880006E6F742E0049742773206120666C792076
:101890006F6E207468652077616C6C2E2048692C0F
:1018A00020666C7921004974277320746865206371
:1018B0006F6E7374656C6C6174696F6E20506973C0
:1018C0006365732E0041204D656E746F73207772CF
:1018D00061707065722E0054686973206772616967
:1018E0006E20656C657661746F7220746F776572B7
:1018F0007320686967682061626F766520796F750B
:101900002E0049742773207363656E6572792066B3
:101910006F72202257616974696E6720666F72204A
:10192000476F646F74222E005468697320697320B6
:10193000616E6F746865722066696E65206D65738F
:101940007320796F7527766520676F7474656E20D4
:10195000757320696E746F2C205374616E6C657999
:101960002E00412063616E206F66205370616D20F0
:101970004C6974652E00416E206162616E646F6E09
:10198000656420757365642D636172206C6F742EBD
:1019900000497427732061204A617661206170706C
:1019A0006C65742E004120736D6F6B696E672062E9
:1019B00072616E64696E672069726F6E2073686110
:1019C000706564206C696B6520612032342D70690C
:1019D0006E20636F6E6E6563746F722E0048656172
:1019E0007274206F66204461726B6E65737320623F
:1019F00072616E642070697374616368696F206ED0
:101A00007574732E00596F7520666F756E64206B48
:101A1000697474656E21204E6F2C206A7573742072
:101A20006B696464696E672E004A75737420612067
:101A300062696720627269636B2077616C6C2E004B
:101A400049742773206120626C61636B20686F6C3E
:101A5000652E20446F6E27742066616C6C20696E61
:101A60002100416E206175746F6D61746564207230
:101A70006F626F742D6C696B65722E2049742073D0
:101A80006D696C657320617420796F752E00416EED
:101A9000206175746F6D6174656420726F626F741C
:101AA0002D68617465722E2049742066726F776E9E
:101AB0007320646973617070726F76696E676C7998
:101AC00020617420796F752E00412068616972630E
:101AD000757420616E642061207265616C206A6F8C
:101AE000622E204E6F7720796F75206B6E6F772096
:101AF000776865726520746F20676574206F6E6506
:101B000021005061756C204D6F7965722773206ECE
:101B100065636B7469652E00416E20696E63726542
:101B20006469626C7920657870656E73697665208A
:101B3000224D61642041626F757420596F752220B7
:101B4000636F6C6C6563746F7220706C6174652E6A
:101B500000412022476574204F7574206F66204A2B
:101B600061696C20467265652220636172642E0093
:101B700049742773207468652070726F766572628D
:101B800069616C2077657420626C616E6B65742E80
:101B9000004120636F7079206F662074686520575C
:101BA00065656B6C7920576F726C64204E65777336
:101BB0002E205761746368206F757420666F7220E1
:101BC000746865206368616D6265726564206E612A
:101BD0007574696C757321004974277320736F6D78
:101BE0006520636F6D70726F6D6973696E672070C9
:101BF000686F746F73206F66204261626172207437
:101C0000686520456C657068616E742E00412067C0
:101C10006C6F72696F75732066616E206F662070DD
:101C20006561636F636B2066656174686572732EAE
:101C3000005768792061726520796F7520746F751F
:101C40006368696E672074686973207768656E20C1
:101C5000796F752073686F756C64206265206669A2
:101C60006E64696E67206B697474656E3F004A75B7
:101C7000737420736F6D652073747566662E0044EF
:101C800061696C792068756E67657220636F6E6438
:101C90006974696F6E65722066726F6D204175732D
:101CA0007472616C61736961004120706C75736856
:101CB000204368657762616363612E0041206D6136
:101CC00072696A75616E612062726F776E69652EE6
:101CD0000041206261646C792064656E74656420E3
:101CE000686967682D6861742063796D62616C2032
:101CF0006C696573206F6E20697473207369646505
:101D000020686572652E0041206D65726520636FE5
:101D10006C6C656374696F6E206F6620706978659E
:101D20006C732E0049742773206A75737420616E7A
:101D3000206F626A6563742E0022446561722072AE
:101D40006F626F742C20796F75206D6179206861E6
:101D5000766520616C726561647920776F6E206FA3
:101D60007572203130204D494C4C494F4E20444F24
:101D70004C4C4152207072697A652E2E2E220049F9
:101D80007427732061206D6967687479207A6F6D9C
:101D90006269652074616C6B696E672061626F7542
:101DA0007420736F6D65206C6F766520616E6420A2
:101DB00070726F737065726974792E004A757374EE
:101DC00020612070696E63757368696F6E2E0049BB
:101DD0007427732061206461726B2C20616D7068C0
:101DE0006F726F757320626C6F62206F66206D6119
:101DF000747465722E004120546578617320496EB9
:101E0000737472756D656E7473206F6620446573AC
:101E10007472756374696F6E2063616C63756C6155
:101E2000746F722E00412068616D6D6F636B20735B
:101E30007472657463686564206265747765656E45
:101E40002061207472656520616E64206120766F68
:101E50006C6C657962616C6C20706F6C652E0041F2
:101E6000207369676E706F737420736179696E6730
:101E70002022544F204B495454454E222E20497461
:101E800020706F696E747320696E206E6F207061B0
:101E900072746963756C61722064697265637469D8
:101EA0006F6E2E004F6E65206F662074686F7365CD
:101EB000207374757069642022486F6D6573206F9C
:101EC000662074686520537461727322206D61709E
:101ED000732E00416E203830323836206D616368D1
:101EE000696E652E00536576656E20312F34222091
:101EF00073637265777320616E6420612070696519
:101F00006365206F6620706C61737469632E00498D
:101F100074277320746865206C6F63616C20647231
:101F200061667420626F6172642E00596F75722051
:101F30005374617465204661726D20496E737572C9
:101F4000616E636528746D292072657072657365B2
:101F50006E7461746976652100497427732061206D
:101F6000737475706964206D61736B2C2066617386
:101F700068696F6E656420616674657220612062B5
:101F80006561676C652E004C656F6E6172642052EE
:101F9000696368617264736F6E206973206865722B
:101FA000652C2061736B696E672070656F706C655E
:101FB00020746F206C69636B2068696D2E00497412
:101FC000277320616E6F7468657220726F626F7420
:101FD0002C206D6F726520616476616E636564208C
:101FE000696E2064657369676E207468616E20791C
:101FF0006F752062757420737472616E67656C7999
:1020000020696D6D6F62696C652E004974277320BD
:102010007468652057696C6C20526F676572732015
:10202000486967687761792E2057686F20776173F8
:102030002057696C6C20526F676572732C20616E3B
:10204000797761793F004A75737420616E206175FC
:10205000746F6772617068656420636F7079206F58
:102060006620746865204B616D61205375747261E0
:102070002E00596F75207374756D626C65207570D4
:102080006F6E2042696C6C20476174657327207302
:1020900074616E642D7570206163742E004974271D
:1020A00073204C756379205269636172646F2E20CE
:1020B0002241616161682C205269636B7921222C75
:1020C0002073686520736179732E0049742773202B
:1020D00052696368617264204E69786F6E2773205D
:1020E0006E6F736521004F4E452048554E44524552
:1020F000442054484F5553414E442043415250458B
:10210000542046494245525321212121210041209A
:102110006C6F6E652C20666F72676F7474656E20CD
:10212000636F6D6D612C20736974732068657265CF
:102130002C20736F6262696E672E004120667265A3
:1021400073686C792D62616B65642070756D706B5E
:10215000696E207069652E004E6F74206B6974740F
:10216000656E2C206A7573742061207061636B65E5
:1021700074206F66204B6F6F6C2D41696428746DFD
:10218000292E004120636F61742068616E6765725B
:1021900020686F7665727320696E207468696E209E
:1021A0006169722E204F64642E00436F756C642049
:1021B00069742062652E2E2E206120626967207569
:1021C000676C7920626F776C696E672074726F70CC
:1021D00068793F00416E20656D7074792073686F77
:1021E0007070696E67206261672E20506170657241
:1021F000206F7220706C61737469633F00492064C2
:102200006F6E2774206B6E6F77207768617420740F
:102210006861742069732C20627574206974277357
:10222000206E6F74206B697474656E2E0054686143
:10223000742773206A7573742061206368617272F9
:1022400065642068756D616E20636F727073652EB2
:102250000041206469676974616C20636C6F636B13
:102260002E204974277320737475636B206174206A
:10227000323A313720504D2E004120626F78206F66
:10228000662066756D69676174696F6E2070656C34
:102290006C6574732E004974277320616E206F6C17
:1022A000642044756B6520456C6C696E67746F6E55
:1022B000207265636F72642E004120626F78206F18
:1022C000662064616E63696E67206D656368616E28
:1022D0006963616C2070656E63696C732E2054684D
:1022E00065792064616E6365212054686579207387
:1022F000696E6721004974277320616E20616C74D8
:10230000617220746F2074686520686F7273652035
:10231000676F642E00546861742773206A75737444
:1023200020616E206F6C642074696E2063616E2E74
:10233000004920706974792074686520666F6F6C3D
:102340002077686F206D697374616B6573206D65AC
:1023500020666F72206B697474656E21222C207365
:10236000657A204D722E20542E00507265737320B2
:10237000616E7920627574746F6E20746F0A737465
:102380006172742E00416C7465726E617469766559
:102390006C792C20796F750A6D617920656E6420E7
:1023A0007468652067616D652062790A6869747474
:1023B000696E672074686520410A627574746F6E77
:1023C0002E20536565207468650A646F63756D65BA
:1023D0006E746174696F6E20666F720A6D6F7265DC
:1023E00020696E666F726D6174696F6E2E00526F38
:1023F000626F74206D75737420746F7563680A69F9
:1024000074656D7320746F2064657465726D696E98
:10241000652069660A7468657920617265206B6958
:102420007474656E206F720A6E6F742E2054686526
:102430002067616D6520656E64730A7768656E203C
:10244000726F626F7466696E64736B697474656EC3
:102450002E00496E20746869732067616D652C20B9
:10246000796F75206172650A726F626F742028231C
:10247000292E20596F7572206A6F620A6973207461
:102480006F2066696E64206B697474656E2E0A54E1
:10249000686973207461736B2069730A636F6D7070
:1024A0006C696361746564206279207468650A658B
:1024B00078697374656E6365206F662076617269F2
:1024C0006F75730A7468696E6773207768696368EB
:1024D000206172650A6E6F74206B697474656E2E6C
:1024E000004164617074656420666F72204172649B
:1024F00075626F790A62792047727A796B69656CC7
:1025000000726F626F7466696E64736B6974746570
:102510006E0A42792074686520696C6C75737472F8
:10252000696F75730A4C656F6E61726420526963DE
:1025300068617264736F6E0A284329203139393714
:102540000A5772697474656E20657370656369619A
:102550006C6C790A666F7220746865204E657274BF
:102560006820506F726B0A726F626F7466696E6476
:10257000736B697474656E0A636F6E74657374004F
:10258000F0F89C8E8783878E9CF8F00000FEFF0396
:1025900003030303070EFCF80000FEFF030303031D
:1025A00003070EFCF80000FFFF0000000000000021
:1025B000FFFF0000FEFF8383838383C7EE7C380028
:1025C00000F8FC0E07030303070EFCF800003F7F32
:1025D000E0C08080C0E07F3FFFFF010101010101F9
:1025E00001FFFF0000FFFF0C0C0C0C1C3E77E3C149
:1025F00000007FFFC0C0C0C0C0E0703F1F00001FD0
:102600003F70E0C0C0C0E0703F1F00007FFFC1C14D
:10261000C1C1C1E3773E1C00001F3F70E0C0C0C0D5
:10262000E0703F1F000000000001FFFF01000000FC
:10263000D5F08D14A1C881CFD9F1AF200020596504
:10264000730A204E6F000A00506C61792061676147
:10265000696E3F0A000A0057617920746F20676F26
:102660002C20726F626F74210A00596F7520666F9B
:10267000756E64206B697474656E210A00312315D0
:1026800023F522B9229622792251222D22FD21D42E
:1026900021AA21832158213B210E21E620CB209D18
:1026A00020722046200B20BE1F871F591F2B1F0F93
:1026B0001FE51ED31EA41E5F1E251EF61DCF1DBCCA
:1026C0001D7F1D391D241D071DD11CBC1CA91C7F8D
:1026D0001C6E1C311C0D1CD81B911B701B511B1830
:1026E0001B021BC91A8E1A621A401A291A051ADD12
:1026F00019A51991197619621928190219D718C53F
:1027000018A618851857183F182018DC17BB1798FB
:102710001766173D171A17D616C1169F166D163B6A
:10272000161916FD15DF159715751550152015EBA3
:1027300014CA147B1439141B14F113CB13A7136997
:10274000134C130D13CA12901244120912C51191A1
:102750001140111511C7109C10621034101010DDBB
:102760000FB40F650F340FF80EDB0E8F0E7B0E5B70
:102770000E1A0EFB0DBC0D6D0D390D020DE30CCBC9
:102780000C8A0C520C3D0C030CD00B900B600B47C9
:102790000B1A0B070BE40ABE0A9D0A660A420A0ED0
:1027A0000AD009A00977095A092509F408BF087950
:1027B00008570834080F08F207C7079F0779075121
:1027C000071F07EB06B7068106670648062506F9C8
:1027D00005B8057B055F052005DC04A20473043EF3
:1027E00004FF03DC03C0037F03590340031503E325
:1027F00002A602930263023102EE01B70190016F5B
:102800000123011601DB00C600AC00205965730AE4
:10281000204E6F000A00526573746172743F0A00A3
:102820000125E1245224EE2385236A2301020408B2
:102830001020408000000000003E5B4F5B3E3E6B7E
:102840004F6B3E1C3E7C3E1C183C7E3C181C577D4A
:10285000571C1C5E7F5E1C00183C1800FFE7C3E796
:10286000FF0018241800FFE7DBE7FF30483A060EA8
:102870002629792926407F050507407F05253F5AEF
:102880003CE73C5A7F3E1C1C08081C1C3E7F14225F
:102890007F22145F5F005F5F06097F017F0066890A
:1028A000956A606060606094A2FFA29408047E0450
:1028B0000810207E201008082A1C08081C2A080876
:1028C0001E101010100C1E0C1E0C30383E38300636
:1028D0000E3E0E06000000000000005F0000000732
:1028E000000700147F147F14242A7F2A1223130860
:1028F000646236495620500008070300001C22413C
:10290000000041221C002A1C7F1C2A08083E0808DF
:10291000008070300008080808080000606000208F
:10292000100804023E5149453E00427F4000724972
:102930004949462141494D331814127F1027454516
:1029400045393C4A4949314121110907364949492C
:1029500036464949291E000014000000403400009A
:102960000008142241141414141400412214080203
:10297000015909063E415D594E7C1211127C7F4976
:102980004949363E414141227F4141413E7F4949CB
:1029900049417F090909013E414151737F080808F7
:1029A0007F00417F41002040413F017F08142241C8
:1029B0007F404040407F021C027F7F0408107F3E22
:1029C0004141413E7F090909063E4151215E7F098F
:1029D000192946264949493203017F01033F4040F6
:1029E000403F1F2040201F3F4038403F63140814E1
:1029F0006303047804036159494D43007F41414119
:102A00000204081020004141417F040201020440F9
:102A100040404040000307080020545478407F287D
:102A20004444383844444428384444287F38545473
:102A3000541800087E090218A4A49C787F08040496
:102A40007800447D40002040403D007F1028440035
:102A500000417F40007C047804787C0804047838C6
:102A600044444438FC1824241818242418FC7C08F6
:102A7000040408485454542404043F44243C404073
:102A8000207C1C2040201C3C4030403C4428102826
:102A9000444C9090907C4464544C4400083641006F
:102AA0000000770000004136080002010204023CE9
:102AB0002623263C1EA1A161123A4040207A3854B8
:102AC0005455592155557941215454784121555433
:102AD000784020545579400C1E5272123955555584
:102AE00059395454545939555454580000457C416F
:102AF0000002457D420001457C40F0292429F0F088
:102B0000282528F07C545545002054547C547C0AD8
:102B1000097F4932494949323248484832324A48A5
:102B200048303A4141217A3A42402078009DA0A0A5
:102B30007D39444444393D4040403D3C24FF2424F9
:102B4000487E4943662B2FFC2F2BFF0929F620C016
:102B5000887E090320545479410000447D41304867
:102B6000484A32384040227A007A0A0A727D0D19AA
:102B7000317D2629292F28262929292630484D400C
:102B800020380808080808080808382F10C8ACBA08
:102B90002F102834FA00007B000008142A14222287
:102BA000142A14089500220095AA005500AAAA55D7
:102BB000AA55AA000000FF00101010FF0014141402
:102BC000FF001010FF00FF1010F010F0141414FCA0
:102BD000001414F700FF0000FF00FF1414F404FCBD
:102BE000141417101F10101F101F1414141F00109E
:102BF0001010F0000000001F101010101F10101017
:102C000010F010000000FF10101010101010101025
:102C1000FF10000000FF140000FF00FF00001F1065
:102C2000170000FC04F414141710171414F404F41F
:102C30000000FF00F714141414141414F700F71410
:102C40001414171410101F101F141414F41410105F
:102C5000F010F000001F101F0000001F1400000003
:102C6000FC140000F010F01010FF10FF141414FFFB
:102C7000141010101F00000000F010FFFFFFFFFFF6
:102C8000F0F0F0F0F0FFFFFF0000000000FFFF0F8A
:102C90000F0F0F0F38444438447C2A2A3E147E021A
:102CA000020606027E027E026355494163384444AF
:102CB0003C04407E201E2006027E020299A5E7A564
:102CC000991C2A492A1C4C7201724C304A4D4D30D5
:102CD0003048784830BC625A463D3E494949007EFA
:102CE0000101017E2A2A2A2A2A44445F4444405191
:102CF0004A444040444A51400000FF0103E080FF45
:102D0000000008086B6B083612362436060F090FD0
:102D100006000018180000001010003040FF0101EC
:102D2000001F01011E00191D1712003C3C3C3C0015
:102D300000000000080B000202020100090400006C
:102D40000102020000052400100105240101010414
:102D5000240206052406000107058103100040092E
:102D6000040100020A0000000705020240000007FB
:102D70000583024000000403090412010002EF026F
:102D80000140412336800001010203014172647554
:102D9000696E6F204C4C430041726475696E6F2000
:102DA0004C656F6E6172646F0000212411241FBE98
:102DB000CFEFDAE0DEBFCDBF11E0A0E0B1E0E0E2AE
:102DC000FBE402C005900D92A034B107D9F727E0CB
:102DD000A0E4B1E001C01D92A136B207E1F716E10F
:102DE000C6EDD6E104C02197FE010E948325C53DB2
:102DF000D107C9F70E94DB1E0C948E250C940000AD
:102E0000CF92DF92EF92FF920F931F93CF93DF93B6
:102E10006C017A018B01C0E0D0E0CE15DF0589F0AE
:102E2000D8016D918D01D601ED91FC910190F08159
:102E3000E02DC6010995892B11F47E0102C021966F
:102E4000ECCFC701DF91CF911F910F91FF90EF90D1
:102E5000DF90CF9008952F923F924F925F926F92A2
:102E60007F928F929F92AF92BF92CF92DF92EF921A
:102E7000FF920F931F93CF93DF93CDB7DEB72797C2
:102E80000FB6F894DEBF0FBECDBF9B838A836A3036
:102E9000A1F4DC015C962C915C9758968D919C91E5
:102EA0005997B8E02B9F800D911D1124EA81FB8179
:102EB000918F808F178A168AC1C06D3009F4BEC009
:102EC000AA81BB815C964C915C975B966C905B97FA
:102ED0006E825A967C905A977F825896CD90DC905D
:102EE000599756968D919C91579780389105C4F0CB
:102EF000AA81BB815C962C915C97422F50E056963C
:102F00008D919C915797B6E02B9F800D911D1124B8
:102F1000EA81FB81978B868B258D21117AC08EC02B
:102F2000F0E4CF16D10424F79C0155E0459F200D15
:102F3000311D112412161306DCF6242E312C9601B5
:102F4000A8E04A9F200D311D11241216130684F6A5
:102F5000B5E06B9FB0011124FB01EC5CF74D2F0134
:102F600050E0F201B490553009F4B12C7601B8E08C
:102F70009B2EB0FC02C08E8001C08F8081100BC0E0
:102F80006E807F80671007C0B6949A94E20CF31CA1
:102F90009110EFCF33C09C012983622F681B641707
:102FA00098F7B701E62FEE19E41728F52038310518
:102FB000F8F460347105E0F48B01ECE2F8E2A0E192
:102FC0006A2E7980609ED001A0781124A70D077029
:102FD000E00FF11DA490BD83AC83A052BD4F8820AB
:102FE00019F0EC91AE2A03C0A094EC91AE22AC9201
:102FF0006F5F7F4FD7CF2F5F3F4FCECF5F5F820D89
:10300000931D92012F5F3F4F2901563009F0A9CF40
:103010006FCF6AEF64039001659F300D1124205833
:103020003F4F2817390754F48A819B81DC01ED91C9
:10303000FC910190F081E02D6AE0099581E090E03B
:1030400027960FB6F894DEBF0FBECDBFDF91CF91AC
:103050001F910F91FF90EF90DF90CF90BF90AF90B6
:103060009F908F907F906F905F904F903F902F90A8
:1030700008950895089580E090E008950E948925BC
:10308000CF93DF9300D000D0CDB7DEB761157105C7
:103090008105910579F09B01AC0169833A834B83EB
:1030A0005C830E94E12429813A814B815C810E94EA
:1030B0000C2503C060E070E0CB010F900F900F90E3
:1030C0000F90DF91CF9108956FED70E080E090E078
:1030D0000E944018DC01CB018196A11DB11DBC01ED
:1030E0008332910589F38F579109829768F3862F70
:1030F0000895CF9365E170E080E090E00E94401871
:10310000C62F68E070E080E090E00E944018962FA3
:103110008C2FCF9108950E94791828E0829FF001AA
:103120001124E90FF11DEE0FFF1FEF57FE4F208115
:10313000318137FFF0CF08953FB7F8948091D902DD
:103140009091DA02A091DB02B091DC0226B5A89B37
:1031500005C02F3F19F00196A11DB11D3FBFBA2F29
:10316000A92F982F8827820F911DA11DB11DBC0189
:10317000CD0142E0660F771F881F991F4A95D1F74E
:1031800008958F929F92AF92BF92CF92DF92EF926B
:10319000FF926B017C010E949C184B015C01C114E1
:1031A000D104E104F104F1F00E949C18DC01CB0190
:1031B00088199909AA09BB09883E9340A105B10560
:1031C00070F321E0C21AD108E108F10888EE880EF8
:1031D00083E0981EA11CB11CC114D104E104F104C8
:1031E00019F7DDCFFF90EF90DF90CF90BF90AF90B9
:1031F0009F908F9008951F920F920FB60F921124F7
:103200002F933F938F939F93AF93BF9380914001F0
:1032100090914101A0914201B09143013091D802B7
:1032200023E0230F2D3720F40196A11DB11D05C009
:1032300026E8230F0296A11DB11D2093D80280938A
:10324000400190934101A0934201B09343018091CA
:10325000D9029091DA02A091DB02B091DC020196D2
:10326000A11DB11D8093D9029093DA02A093DB02D5
:10327000B093DC02BF91AF919F918F913F912F91BD
:103280000F900FBE0F901F9018952D9A0895BC01B6
:1032900080E090E00C94C1188FB12CB193B130E074
:1032A0002095309520743327A90123E05595479543
:1032B0002A95E1F7292F30E02095309520713327AA
:1032C0003595279535952795242B8095807F822BE2
:1032D000089583B7817F83BF83B7816083BF88955B
:1032E00083B78E7F83BF08958EBD00000DB407FEA7
:1032F000FDCF0895880F880F880F482F50E0E0EE2B
:10330000F6E0272F220F720F770F272F30E0378B31
:10331000268B518F408F862F0C945A1B0F931F932F
:10332000CF93DF931092440121E831E04FEF5FEF3C
:1033300080E090E0F901E80FF91F51834083029685
:1033400080319105B9F7205F3F4F82E0213D38077A
:1033500079F7C5E4D1E000E010E00E9464188883AA
:1033600067EC70E080E090E00E9440186B830E9460
:103370008B1828E0829FF0011124E90FF11DEE0F58
:10338000FF1FEF57FE4F1183008389839A830F5FDE
:103390001F4F24960E30110501F783E28093D1026E
:1033A0000E948B189093D3028093D2020E946418DB
:1033B00080937D010E948B1890937F0180937E0102
:1033C00080917F01E0917E0198E0E99FF001112456
:1033D000E80FF11DEE0FFF1FEF57FE4F8FEF90E04C
:1033E0009183808381E080930001DF91CF911F91D1
:1033F0000F910895FC018091DF02811103C08FEFCE
:103400009FEF08959FB7F89482E08093E9002091A0
:10341000F20030E01216130614F421E030E021151A
:10342000310559F0289884E68093DE028091F100FE
:1034300080838091F200882319F09FBFC90108950D
:103440008BE68093E800F9CF2FB7F89483E0809360
:10345000E9009091E800892F807295FF04C0909157
:10346000F20080E4891B2FBF0895CF93DF931F9252
:10347000CDB7DEB76983DC01ED91FC910280F38169
:10348000E02D41E050E0BE016F5F7F4F09950F9046
:10349000DF91CF91089583E08093E9008091F2005D
:1034A000882319F08AE38093E80008950E94241A83
:1034B00090E00895CF93DF931F92CDB7DEB7FC0164
:1034C0008485958597FD05C02FEF3FEF35872487CD
:1034D0000BC0CE0101960E94FA19019719F4898157
:1034E00090E002C08FEF9FEF0F90DF91CF91089592
:1034F0000F931F93CF93DF931F92CDB7DEB78C014D
:10350000FC018485958597FF0EC0CE0101960E942F
:10351000FA19019719F4298130E002C02FEF3FEF2B
:10352000F80135872487F801848595850F90DF9110
:10353000CF911F910F910895FC018485958597FD8A
:103540000BC09FB7F89482E08093E9008091F2006D
:103550009FBF90E0019608959FB7F89482E0809312
:10356000E9008091F2009FBF90E008958F929F92B2
:10357000AF92BF92CF92DF92EF92FF920F931F9381
:10358000CF93DF935C016B017A018091090188235D
:1035900009F45BC08091DF02882309F456C0809152
:1035A000DD0280FF05C08091E00082608093E00032
:1035B000E70110E00AEF83E0882E9AE3992E209726
:1035C000D9F10E94241A81110AC0015009F43DC0AA
:1035D00061E070E080E090E00E94C118F0CF282FF9
:1035E00030E0C217D3070CF48C2F4FB7F8948092B9
:1035F000E9009091E80095FF1DC0282F30E0C21B24
:10360000D30BF601982F915020F081918093F10017
:10361000FACFC20ED31E112319F09092E80009C010
:103620008091E80085FD06C09092E80011E02097A7
:1036300009F010E04FBFC3CF1111C3CF5D9884E6EE
:103640008093FE061E141F0444F081E090E0F50113
:103650009383828380E090E001C0C701DF91CF9126
:103660001F910F91FF90EF90DF90CF90BF90AF90A0
:103670009F908F9008958091E0028EBDE1EEF2E080
:1036800081910DB407FEFDCF8EBD86E0E03EF807C8
:10369000B9F70DB407FEFDCF089580E0E0EEF2E04B
:1036A00081118FEF002481938193819381930394FF
:1036B000D1F70895E091E006F091E1060190F081E4
:1036C000E02D682F80EE96E009942091EA062823E9
:1036D00029F49091E906982381E009F480E00895A7
:1036E0000F931F93CF93DF938C01C0E0D0E0F801DC
:1036F000EC0FFD1F6491662371F0E091E006F091FC
:10370000E1060190F081E02D80EE96E00995892B8D
:1037100011F02196ECCFCE01DF91CF911F910F9147
:1037200008958091030781110DC082E08093FF0608
:1037300084E080930007109202071092010781E055
:10374000809303078FEF96E008951F920F920FB6B4
:103750000F9211248F939F938091E1009091E1004B
:10376000937F9093E10083FF0FC01092E90091E0F6
:103770009093EB001092EC0092E39093ED00109286
:10378000DF0298E09093F00082FF20C093E09093D6
:10379000E9009091F200992319F09AE39093E800E0
:1037A0009091FE06992339F09091FE0691509093E6
:1037B000FE06992389F19091DE02992339F09091C8
:1037C000DE0291509093DE02992341F184FF10C0F4
:1037D0008091E2008E7E81608093E2008091E10022
:1037E0008F7E8093E1008091DD028E7E806111C02A
:1037F00080FF16C08091E2008E7E80618093E2009F
:103800008091E1008E7E8093E1008091DD028E7ECA
:1038100081608093DD0204C05D9ACDCF289AD6CF17
:103820009F918F910F900FBE0F901F901895409110
:103830005F075091600720915D0730915E07421746
:103840005307B4F49091E8009570E1F39091E8008B
:1038500092FD19C08093F10080915F0790916007FD
:1038600001968F739927892B19F48EEF8093E800C6
:1038700080915F0790916007019690936007809315
:103880005F0781E0089580E00895DF92EF92FF9254
:103890000F931F93CF93DF93D82E8A017B01E40E01
:1038A000F51EEB01CE15DF0571F0D7FE03C0FE015A
:1038B000849101C088810E94171C21968111F2CF4A
:1038C0008FEF9FEF01C0C801DF91CF911F910F9142
:1038D000FF90EF90DF900895615030F02091F1005B
:1038E000FC0120830196F8CF289884E68093DE02BD
:1038F00008950F931F93CF93DF931F92CDB7DEB739
:1039000082E0898342E450E064E37DE280E80E9443
:10391000451C0E94911BDC0112960D911C9113977E
:103920000115110569F0D801ED91FC910280F38138
:10393000E02DBE016F5F7F4FC801099597FF07C05B
:1039400089810F90DF91CF911F910F910895F80118
:1039500000851185E5CF1F920F920FB60F921124AB
:10396000CF92DF92EF92FF920F931F932F933F938B
:103970004F935F936F937F938F939F93AF93BF9377
:10398000EF93FF93CF93DF93CDB7DEB76C97DEBF96
:10399000CDBF1092E9008091E80083FFEDC168E09F
:1039A000CE0145960E946C1C82EF8093E8008D89C1
:1039B00087FF05C09091E80090FFFCCF03C09EEF09
:1039C0009093E800982F907609F0C6C09E892F89C1
:1039D000188D91110CC0803829F480915C07809378
:1039E000F10002C01092F1001092F10048C1422F84
:1039F00050E0512B913051F4811141C141305105BA
:103A000009F03DC180915C078D7F0BC0933061F45C
:103A1000811135C14130510509F031C180915C07F8
:103A2000826080935C072BC1953041F48091E8005F
:103A300080FFFCCF20682093E30021C1963009F07D
:103A40005FC0EB8CFC8C1092E90010926007109222
:103A50005F07123091F510925E0710925D070E9489
:103A6000791C99E0BE016F5F7F4FDB01E92F1D924A
:103A7000EA95E9F799831A8391E09E8390EA988703
:103A80009AEF998720915F0730916007275F3F4F3A
:103A90003C832B838D831092E90010926007109273
:103AA0005F07F0925E07E0925D0749E050E080E03A
:103AB0000E94451C0E94791CE2C0F0925E07E092D1
:103AC0005D070E94911BDC011296ED90FC9013970C
:103AD000E114F10409F4C0C0D701ED91FC91048018
:103AE000F581E02DBE016B5E7F4FC7010995009700
:103AF00019F00CF0C4C0C7C0F701E084F184E8CF2E
:103B0000973009F4C0C0983021F481E08093F1002F
:103B1000B6C0993009F0B3C0837009F0B4C0E9E3CE
:103B2000F1E081E021E036E39081992361F0809318
:103B3000E9002093EB0091919093EC003093ED001D
:103B40008F5F873089F78EE78093EA001092EA0052
:103B50008F898093DF0293C08B8D9C8D1092E9003A
:103B60001092600710925F0790935E0780935D0745
:103B7000898D811156C08E899D89913A59F481327F
:103B800009F081C047E050E062E071E080E00E940F
:103B9000451C75C0913209F076C0833289F4888D56
:103BA00090E0982F88272F89822BA0E0B0E08093A7
:103BB0000A0190930B01A0930C01B0930D015FC01B
:103BC000803269F48091E80082FFFCCF67E082E0F8
:103BD00091E00E946C1C8BEF8093E80006C082325B
:103BE00009F04DC08F898093090180915B0788237C
:103BF00019F0EEEFFAE002C0E0E0F8E08091020197
:103C000090910301A0910401B0910501803B944083
:103C1000A105B10509F07BC08091090180FF93C027
:103C200076C00E94911BDC0112960D911C91139796
:103C30000115110541F1D801ED91FC910190F08140
:103C4000E02DBE016B5E7F4FC8010995811117C041
:103C5000F80100851185ECCF113009F44EC0133006
:103C600091F48F89882309F445C0823081F440E8BB
:103C700060E188E99DE20E945624882321F08EEFBE
:103C80008093E80079C081E28093EB0075C08130B9
:103C900029F440E86BE08CE89DE2EDCF833099F7A2
:103CA0000E94911BDC011296ED90FC9013978E01FF
:103CB0000F5F1F4F6801E114F10479F0D701ED9116
:103CC000FC910680F781E02DB801C7010995080F26
:103CD000111DF701E084F184EECFD8011C92F601AA
:103CE00001900020E9F73197BF016C197D0940E090
:103CF000C601C1CF66E77DE202C06AE77DE26115D9
:103D0000710509F2FB01449150E080E840CF0FB605
:103D1000F894A8958091600088618093600010926B
:103D200060000FBEA895EE3F2AE0F20739F08091BF
:103D3000FE0A9091FF0A91838083A1CF1092FF0A1F
:103D40001092FE0A9CCFEE3F8AE0F80731F08081A6
:103D500091819093FF0A8093FE0A87E797E791830A
:103D600080839BE088E10FB6F894A895809360006B
:103D70000FBE9093600083CF6C960FB6F894DEBFB1
:103D80000FBECDBFDF91CF91FF91EF91BF91AF916A
:103D90009F918F917F916F915F914F913F912F9163
:103DA0001F910F91FF90EF90DF90CF900F900FBE7B
:103DB0000F901F901895CF93DF93CDB7DEB7CC58F7
:103DC000D1090FB6F894DEBF0FBECDBF789484B58D
:103DD000826084BD84B5816084BD85B5826085BD07
:103DE00085B5816085BD80916E00816080936E0095
:103DF0001092810080918100826080938100809187
:103E00008100816080938100809180008160809337
:103E10008000809191008260809391008091910058
:103E200081608093910080919000816080939000E8
:103E30008091C10084608093C1008091C100826044
:103E40008093C1008091C10081608093C100809106
:103E5000C30081608093C3008091C0008260809322
:103E6000C0008091C20081608093C20080917A007E
:103E7000846080937A0080917A00826080937A00D7
:103E800080917A00816080937A0080917A008068C6
:103E900080937A001092DF0210925C071092DD028C
:103EA0008091D70081608093D70080EA8093D8000A
:103EB00089B5806189BD89B5826089BD09B400FE7C
:103EC000FDCF61E070E080E090E00E94C118809139
:103ED000D8008F7C80618093D8008091E000807F43
:103EE0008093E0008091E1008E7E8093E1008DE080
:103EF0008093E200559A209AEEEFFFE78591949126
:103F00008B3F9C4D19F481E080935B0781EC80939B
:103F10007C0085B1806F85B9249884B1866E84B9A0
:103F20005E9A5F988AB1806D8AB9769A6E9881B3ED
:103F3000806F81BB899880B38D7080BB80E58CBD1C
:103F400081E08DBD85E090E00E9447195F9A85E091
:103F500090E00E9447195E985C9800E316E28DE0BD
:103F6000F82EF00EF80184910E9474190F5F1F4F14
:103F7000F012F8CF5C9A81E88093640081E080932E
:103F8000650000E014E080E00E94741901501109FE
:103F9000D1F70E944C1987FF1FC05C9885EA0E94E8
:103FA00074195C9A2E982F982D98809164008062E5
:103FB000809364000E946919FDCF2D980E944C19CE
:103FC0008478843871F00E944C198471843131F105
:103FD00088EC90E00E9447190E944C1982FDEDCFB9
:103FE0003AC00E94451988EC90E00E9447192F982A
:103FF00082E090E00E94F6248F3F29F06FEF82E08C
:1040000090E00E94FE2484EF91E00E9447192F9ACD
:104010000E944C1984788438D9F3D5CF0E94451971
:1040200088EC90E00E9447192E9882E090E00E9470
:10403000F624882329F060E082E090E00E94FE24CC
:1040400084EF91E00E9447192E9A0E944C198471C6
:104050008431D9F3BDCF0E94451982E090E00E94DF
:10406000F624882331F03E9A3F9A81E08093D5026E
:1040700004C01092D5023E983F982E980EEE1FEF86
:10408000B8E0AB2EB12C0E944C1986FF04C02E9ACA
:104090002F9A2D9A8CC00C3FFFEF1F0719F42E9A10
:1040A0002F9805C00831110511F42F9A2D980E9400
:1040B0004D1B003F2FEF120784F40E943B1B8BE146
:1040C00090E00E944719003F4FEF140709F059C0D4
:1040D0008AEF90E00E94471954C0980117FF04C06E
:1040E00022273327201B310B27703327C80117FDE8
:1040F0000796A3E095958795AA95E1F717FF05C068
:104100000197F501E21BF30B9F017C01F694FE2C55
:10411000EE24F794E79460E070E03501621A730AC8
:10412000A70140585F4F4A018F3F5FEF950744F466
:104130000196685A7F4F7401603B710589F7BDCFC6
:10414000D701AC58BC4F40E050E08F3FEFEF9E07E7
:1041500009F418C3FA01E60FF71FE058FA4DE4918D
:104160006D01C818D908CE0CDF1CF0E01F01022E2B
:1041700001C0220C0A94EAF7F6015080252820821B
:1041800001C30F5F1F4F0931110509F07CCF8CEB84
:1041900092E00E9447190E944519E091E406F091CF
:1041A000E5060190F081E02D84EE96E0099582E32A
:1041B00090E00E9447190E944C198111F8CF80E1CC
:1041C0008093EB06809164008E7F809364008091E1
:1041D0007A00806480937A0080917A0086FDFCCF1B
:1041E00000917800109179000E949C1820E030E046
:1041F000980111270027600F711F821F931F6115FF
:1042000071058105910511F00E94E62480916400FA
:104210008160809364008E010F5F1F4FBB24B394B5
:1042200076E0A72E2FB7F89480914001909141013C
:10423000A0914201B09143012FBF4091F0065091EF
:10424000F1066091F2067091F3062091F4062223A4
:1042500041F02091EC06821B8093F5061092F40643
:104260008AC284179507A607B70740F4F42FF81BF6
:10427000F23008F480C20E9469197DC2B092F4063F
:104280008093EC069093ED06A093EE06B093EF06B4
:104290002091EB06820F911DA11DB11D8093F006A8
:1042A0009093F106A093F206B093F3068091E7068F
:1042B0009091E80601969093E8068093E706809136
:1042C000E9068093EA060E944C198093E9060E9451
:1042D0004D1B1092F9061092F8061092F7061092F4
:1042E000F6068091D702823009F423C130F4882386
:1042F00069F0813009F44AC03CC2843009F48CC1B1
:1043000008F4D3C0863009F4EAC133C20E948E1982
:10431000E091D602F0E0EE0FFF1FE05EF74D6591F1
:104320007491C8010E94EF24F80101900020E9F780
:104330003197AF01401B510BB80180EE96E00E940F
:104340000017F090D60224E02F15D0F088E00E94EC
:10435000651B882319F01092D602E6C084E50E94FE
:10436000651B882311F0F39408C080EA0E94651B46
:10437000882309F4FEC1F110FA94F092D602F9C133
:104380008CEF0E94651B8111E6CFF3C1E090D20251
:10439000F090D30280E80E94651BCF2CD12C88239B
:1043A00031F042E0C416D10474F1FA9435C080E1D2
:1043B0000E94651B882331F056E0C516D1042CF508
:1043C000F3942AC080E20E94651BCE2CD12C882356
:1043D00031F082E0C816D104DCF0EA941DC080E41C
:1043E0000E94651B882331F093E1C916D10494F42F
:1043F000E39412C088E00E94651B882369F083E083
:104400008093D70209C0F12C07C057E0F52E04C0F5
:10441000E12C02C044E1E42E28E0E29EF0011124E8
:10442000EF0DF11DEE0FFF1FEF57FE4F80819181C1
:1044300097FF05C0E092D202F092D3020BC08093A6
:1044400001018F3F21F484E08093D70203C042E052
:104450004093D7026091D1027091D2028091D30231
:104460009091D4020E947A1960917D0170917E0131
:1044700080917F01909180010E947A19E12CF12CAA
:10448000F701EE0FFF1FEE0FFF1FEB5BFE4F60818A
:104490007181828193810E947A195FEFE51AF50A92
:1044A0008EE0E816F10461F764C186E198E20E94AB
:1044B000701B84E198E20E94701B8BE098E20E94DE
:1044C000701B809100011092F7061092F606813061
:1044D00039F4E0E1F0E0F093F906E093F80606C065
:1044E00048E150E05093F9064093F80680E10E94BD
:1044F0005A1B80E10E94651B882319F0109200016D
:1045000038C180E80E94651B882319F0B092000131
:1045100030C184E00E94651B882349F0809100012E
:10452000813011F40E948E19B092D70222C188E026
:104530006EC0E091010154E0E59FF0011124EB5BB6
:10454000FE4FE381F0E0EE0FFF1FE358F94D659158
:104550007491C8010E94EF24F80101900020E9F74E
:1045600031971F01201A310A310195E1C92ED12C52
:10457000E12CF12C812C912C56E16516710484F10B
:10458000F801EC0DFD1D8081803221F081E0C81A18
:10459000D108F6CF1092F7061092F6069092F9061F
:1045A0008092F80628014E0C5F1CC201801B910B03
:1045B0008C159D0534F4F20181912F010E945A1B44
:1045C000F4CFF8E08F0E911CEC18FD086E0C7F1CE8
:1045D00076012FEFE21AF20A46E1C40ED11CCCCFCD
:1045E0001092F7061092F6069092F9068092F8065D
:1045F000E00EF11EC701801B910B8215930534F468
:10460000F70181917F010E945A1BF4CF8CEF0E9429
:10461000651B811189CFADC020914401211109C0D2
:10462000A092D2028093D302FFE0F0937E018093A8
:104630007F018091E7069091E8066CE370E00E94AC
:104640006F25892B91F4243058F48091D2028F5F2A
:104650008093D20280917E01815080937E0102C0BE
:10466000263018F42F5F2093440180914401853057
:10467000E9F42091D3022150220F220F220F30E0C3
:104680008091D202982F990F890F880F90E0909314
:10469000F7068093F6063093F9062093F80683E038
:1046A0000E945A1B83E00E945A1B04C0863011F4FA
:1046B0008093D7026091D1027091D2028091D3028F
:1046C0009091D4020E947A1960917D0170917E01CF
:1046D00080917F01909180010E947A194AC08AE6F8
:1046E00096E20E94701B87E596E20E94701B85E5AA
:1046F00096E20E94701B88E496E20E94701B86E49A
:1047000096E20E94701B8DE396E20E94701B8091DE
:1047100000011092F7061092F606813039F448E253
:1047200050E05093F9064093F80606C080E390E00D
:104730009093F9068093F80680E10E945A1B80E16D
:104740000E94651B882319F01092000106C080E8C2
:104750000E94651B8111B092000184E00E94651BDC
:10476000882339F080910001813009F4DBCE10926A
:10477000D7020E943B1BE0E0F0E0309709F452CDF5
:1047800009954CCD2115310581F0FA01E60FF71F8F
:10479000E058FA4DE491F0E0062C02C0F595E7955B
:1047A0000A94E2F7DC90ED29EC934F5F5F4F11968E
:1047B0004835510509F0C9CCBBCC0F931F93CF935B
:1047C000DF938C0181E090E00E94F62480FF31C0ED
:1047D0008AE090E00E94F6249FEF980F9E3F48F5F4
:1047E00022E330E0D80157963C932E93569728E366
:1047F00030E059963C932E935897CBE0D0E0D80107
:10480000ED91FC910190F081E02D682FC801099590
:10481000CE010E94F6242196C131D10581F70E9474
:104820003B1B88EE93E0DF91CF911F910F910C9489
:104830004719DF91CF911F910F91089504970C9420
:10484000DD23EBE0F7E01382128288EE93E0A0E034
:10485000B0E084839583A683B78386E191E091835A
:1048600080838FEF9FEF95878487E0EEF6E01382D9
:1048700012821186128620E1238790878783108A0F
:10488000118A128A138A148A88E291E091838083C4
:1048900086E391E095838483178A168A118E108EA1
:1048A00081E0828F138E848F158E0895CF92DF92D0
:1048B000EF92FF920F931F93CF93DF931F92CDB789
:1048C000DEB7182F062FE42E862F880F8E5F998370
:1048D0000E94171C83E00E94171CF12EC12E9981A3
:1048E000D92E8C2D8F19801798F4F601E7FE02C09F
:1048F000849101C080810E94171C182F80E00E94C3
:10490000171C8123FFEFCF1ADF0A8111EACF01C004
:1049100081E00F90DF91CF911F910F91FF90EF9069
:10492000DF90CF9008958F929F92AF92BF92CF92D7
:10493000DF92EF92FF92CF93DF93EC016881798150
:104940008A819B81611571058105910521F464E2DD
:1049500079ED8BE597E02DE133EF41E050E00E94E7
:104960000C2549015A019B01AC01A7EAB1E40E9460
:104970002B256B017C01ACEEB4EFA50194010E94E4
:104980003925DC01CB018C0D9D1DAE1DBF1DB7FF70
:1049900003C00197A109B04888839983AA83BB8388
:1049A000BC01CD019F77DF91CF91FF90EF90DF9019
:1049B000CF90BF90AF909F908F9008950E949324C6
:1049C00008958EE091E00E949324089560930E0173
:1049D00070930F0180931001909311010895FB01D2
:1049E000DC0105900D920020E1F70895F999FECFC2
:1049F00092BD81BDF89A992780B50895262FF9991F
:104A0000FECF1FBA92BD81BD20BD0FB6F894FA9AB1
:104A1000F99A0FBE01960895052E97FB1EF4009497
:104A20000E94232557FD07D00E943E2507FC03D096
:104A30004EF40C94232550954095309521953F4F89
:104A40004F4F5F4F089590958095709561957F4F7A
:104A50008F4F9F4F08950E946025A59F900DB49F92
:104A6000900DA49F800D911D11240895B7FF0C9403
:104A70002B250E942B25821B930B0895A1E21A2E51
:104A8000AA1BBB1BFD010DC0AA1FBB1FEE1FFF1FF2
:104A9000A217B307E407F50720F0A21BB30BE40B42
:104AA000F50B661F771F881F991F1A9469F7609589
:104AB0007095809590959B01AC01BD01CF01089543
:104AC000A29FB001B39FC001A39F700D811D11244F
:104AD000911DB29F700D811D1124911D0895AA1B77
:104AE000BB1B51E107C0AA1FBB1FA617B70710F0D9
:104AF000A61BB70B881F991F5A95A9F7809590950B
:104B0000BC01CD010895EE0FFF1F0590F491E02D3B
:104B1000099481E090E0F8940C948E25F894FFCFEE
:104B200001FF00E1000000000000FFFFFFFF0100A7
:104B3000000000000000351AB61A561A4B1A9C1ACB
:104B40005A1A781A000000002B1700173B183A1861
:104B5000DD23FCFF00001E2400C180810000000056
:00000001FF
